:400000000040002011000000C1B90000C1B9000080B500AF0BF010FD80B500AF264B12221A6030200FF028F9244B254A1A60254BEF2212021A60244B244A1A60244BC022ED
:4000400092001A60204B234A1A60234BBC2292011A601D4B214A1A60214BE82252011A60194B204A1A60204B822212061A601F4B8022D2021A601E4B43221A601D4B4022E4
:400080001A601D4B40221A601C4B40221A601C4B42221A601B4B41221A601B4B190007200FF01AFA07200FF0D9FA184B00221A60C046BD4680BDC0463000104004010B40EA
:4000C000060000800C0301400000014043FF00800003014040FF00800803014042FF00800403014041FF008008010B4000010B404C01014044010140300101402C0101407B
:400100002801014008010140891A01000C020B4080B582B000AF72B6654B01221A70FB1D00221A7022E0FB1D1A7813005B009B185B00604A9B183B603B681A78597809027E
:400140000A43997809040A43DB781B06134318003B681A795B791B0213439BB219000BF067FBFB1D1A78FB1D01321A70FB1D1B78012BD8D9504A514B110018000BF088FBC1
:400180004F4B802252001A804E4B01221A704E4BC02292041A604D4BC02292031A604C4BC02292041A604B4BEE2212021A604A4BEE221A60494B70221A60494B80221204F5
:4001C0001A60484B992212041A60474B802212061A60464B8A22D2051A60454B454A1A60454B802292041A60444BC02212051A60434B992212041A60424B8A22D2051A6013
:40020000414B992212041A60404B01221A60404B19221A603F4B01221A603F4A3E4B1B78DBB23C218B43DBB214210B43DBB213703A4A3A4B1B78DBB216210B43DBB213701D
:40024000374BC0221A60374BB022D2031A60364B20221A60354BE222D2021A60344B802252011A60334B40221A60334BC02252031A60324BD82212011A60314B03221A6058
:40028000304B24221A60304B07221A602F4B07221A602F4B20221A602E4BC02292021A60FFF7BAFE0BF036FBC046BD4602B080BD1C700F40D447010004480100E0470100EB
:4002C00000600F4002600F400000024000010240000202400003024000040240000502400006024000500F4004500F4008500F4010500F400400990014500F4018500F401C
:4003000020500F4028500F4030500F40200010400820014000800F4001700F4000700F40000004400800044000010440080104400C010440000204400802044008030440EB
:4003400000040440080404400005044018050440000604400806044010B5064C2378002B07D1054B002B02D0044800E000BF0123237010BD8001002000000000E440010068
:40038000084B10B5002B03D00749084800E000BF07480368002B00D110BD064B002BFBD09847F9E70000000084010020E4400100C800002000000000164B002B00D1144BF1
:4003C0009D46402292029A1A924600218B460F461348144A121A13F07CFE0F4B002B00D098470E4B002B00D098470020002104000D000D48002802D00C4800E000BF13F0F1
:4004000039FE2000290000F013F813F01DFEC046000008000000000000000000000000008001002038250020000000000000000080B58CB00AAF01F0E9F909F081F909F08E
:4004400021F900F085FABB1D180001F09DFF0F4A0F491048BB1D08930323079300230693002305930023049380235B00039319230293094B019302230093002306F040F9B2
:40048000BB1D180002F0D2F9FEE7C0469D040000F0400100A00100206402002090B587B002AF78600E23FB1800221A7000F07EFA00F088FB0A23FB18180005F0C1FD01F0BF
:4004C00077FA00F083F800F059F800F093FA0D23FC1800F05FFB030023700D23FB181B78002B0FD10F23FB181B78002B0AD0214B1B78012B03D11F4B00221A7002E01D4B21
:4005000001221A700F23FB180D22BA1812781A70184B1B78012B0BD10E23FB181B78002B11D10E23FB1801221A7000F057FA0AE00E23FB181B78012B05D10E23FB18002277
:400540001A7000F057FA0E23FB181B78012B04D1094B1B68180000F05FFA0A23FB18019300230093642300220021002007F0DEFFADE7C0469C010020980B002080B58CB0CD
:400580000AAF0E4A0E490F48BB1D08930323079300230693002305930023049380235B00039319230293084B019303230093002306F0A6F8C046BD4602B080BDD905000086
:4005C00000410100640600202807002080B500AFC046BD4680BDC04690B589B002AF7860304B314A190010000EF030F80EF00CFA1723FC180DF0F0FE030023701723FB1844
:400600001B78012B2FD100200DF0AEFE03001A001423FB181A801423FB181B886421180012F008F803009BB2180012F03BFD031C3B61386913F01AFB1C4A1D4B13F09CF82A
:4006400003000C001800210000221A4B12F068FD03000C001800210013F05CFB021C164B1A600DF05BFE0F4B1B88322B03D9134B00221A8003E00B4B1A88104B1A80104AD9
:400680001049114B180000F0F5FB0E23FB18019300230093322300220021002007F046FFA6E7C046280B002080013A40CDCCCCCCCCCCFC3F000040408C0B0020920B002032
:4006C000940B0020960B0020900B002080B500AFC046BD4680BDC04680B500AFC046BD4680BDC04680B500AFC046BD4680BDC04680B500AFC046BD4680BDC04680B582B098
:4007000000AF7860C046BD4602B080BD80B582B000AF7860C046BD4602B080BD80B582B000AF7860C046BD4602B080BD80B500AFC046BD4680BDC04680B500AFC046BD4651
:4007400080BDC04680B586B000AFF860B9607A601623FB18BA687968F86805F051F81623FB181B88002B01D0002300E001231800BD4606B080BDC04680B586B002AF7860CA
:4007800039603B68FA2292005A430E4B1B681900100011F04FFF0300FB60F96878680A23FB1800930023002205F07AF80A23FB181B88002B01D0002300E001231800BD461F
:4007C00004B080BDB843010080B584B000AF78600E23FA187B680021180005F0F9F90E23FB181B88002B01D0002300E001231800BD4604B080BDC04680B586B002AF7860C6
:400800007B681E4A934201D91C4B7B607B681C4A934216D97A68FA239900100011F00AFF03001A000C23FB181A807A68FA239900100011F085FF0B001A000E23FB181A8094
:4008400007E00E23FB187A681A800C23FB1800221A800E23FB1819880C23FB181A880A23FB180193002300930B000021002007F05DFEC046BD4604B080BDC04610270000AB
:40088000E703000080B584B000AF78600E23FA187B680021180007F0D9FDC046BD4604B080BDC04680B582B000AF00F08FF803007B600A4B094A1268802149040A431A60F0
:4008C000074B074A126801210A431A607B68180001F060F8C046BD4602B080BDFCED00E0001000E080B582B000AF044B1B687B607B681800BD4602B080BDC046041000E053
:40090000B0B586B000AF786000F060F803003B6100237B617B681C0000231D00386979690A4A002312F020F802000B002000290012F01AF803000C00BB60FC60BB68FC68E5
:4009400018002100BD4606B0B0BDC04640420F0080B582B000AF114B1B687B607B68104A13407B607B683B603B6838330D4A1A603B683C330C4A1A600CF05AF90BF074FD4C
:400980000BF08EF90DF04AFC0DF0C8FC0DF0C6FE0DF020FFC046BD4602B080BD08ED00E0FFFFFFDF95BB0000E122000080B582B000AF00F00BF803007B607B68180001F005
:4009C000ABFCC046BD4602B080BDC04680B500AF014B1800BD4680BD006CDC0280B500AF034B1B68180000F017F8C046BD4680BDD000002080B500AF00F07EF80200054BE2
:400A00001A60FF231B06180000F006F8C046BD4680BDC046D000002080B584B000AF78607B681B0C1A120F23FB181A707B681A0C0E23FB181A700F23FB181B781A001B02DC
:400A4000D31A0F22BA1812780E21791809784A439B18284A944663445A080C23FB181A800C23FB181B8818000CF00CFB7B681A120E23FB181A700F23FB181B781A001B025E
:400A8000D31A0F22BA1812780E21791809784A439B18184A944663445A080C23FB181A800C23FB181B8818000BF008FF0E23FB187A681A700F23FB181B781A001B02D31A6F
:400AC0000F22BA1812780E21791809784A439B18084A944663445A080C23FB181A800C23FB181B8818000BF005FBC046BD4604B080BDC04601FE000080B582B000AFFF23A8
:400B00001B067B600CF0CEFA0200BB1C1A80BB1C1B885B00FF21180011F08CFD03001A007B1C1A707B1C1B781B041A007B6813437B600BF0D3FE0200BB1C1A80BB1C1B887D
:400B40005B00FF21180011F075FD03001A007B1C1A707B1C1B781B021A007B6813437B600BF0D8FA0200BB1C1A80BB1C1B885B00FF21180011F05EFD03001A007B1C1A70D5
:400B80007B1C1B787A6813437B607B681800BD4602B080BD90B583B000AFFC1D0DF020FA03002370FB1D1B780122134001D1012200E00022BB1D1A70BB1D1B781800BD461E
:400BC00003B090BD90B583B000AF0CF07BFC374B18000DF06DFA3220FFF70EFEFC1D00F067F803002370FB1D1B78012B59D1BB1D62221A70BB1D1A001B21002000F0C0F82E
:400C0000BB1D04221A70BB1D1A001D21002000F0B7F8BB1D30221A70BB1D1A001E21002000F0AEF8BB1D3F221A70BB1D1A001F21002000F0A5F8BB1D02221A70BB1D1A0088
:400C40002121002000F09CF8BB1D32221A70BB1D1A002921002000F093F8BB1D08221A70BB1D1A006A21002000F08AF8BB1D1A001B21012000F084F8BB1D1B78802252420A
:400C80001343DAB2BB1D1A70BB1D1A001B21002000F076F8BB1D1A001A21012000F070F800E0C046BD4603B090BDC0462D10000090B583B000AFFC1DBB1D1A000C210120F2
:400CC00000F05EF803002370FB1D1B78012B03D1BB1D1B78552B01D000234CE0BB1D1A001B21012000F04CF8BB1D1B787F221340DAB2BB1D1A70BB1D1A001B21002000F054
:400D00003FF8BB1D1A001D21012000F039F8BB1D1B7810221343DAB2BB1D1A70BB1D1A001D21002000F02CF8FC1DBB1D1A000C21012000F025F803002370FB1D1B78012BF2
:400D400003D1BB1D1B78AA2B01D0002313E0FC1DBB1D1A000C21012000F012F803002370FB1D1B78012B03D1BB1D1B78552B01D0002300E001231800BD4603B090BDC046E0
:400D800080B584B000AF3A60FB1D021C1A70BB1D0A1C1A70FA239B001A0000210F200CF0FDFD02000E23FB181A700E23FB181B78002B41D1BB1D1A78FA239B0019001000F2
:400DC0000CF0F8FE02000E23FB181A70FB1D1B78002B11D13B681B781A00FA239B00190010000CF0E7FE02000E23FB181A700F23FB1801221A7023E0FB1D1B78012B16D1E4
:400E0000FA239B001A0001210F200CF041FE02000E23FB181A70FA239A003B68190001200CF002FF0F23FB1801221A7008E00F23FB1800221A7003E00F23FB1800221A7054
:400E4000FA239B0018000CF073FE02000E23FB181A700E23FB181B78002B03D00F23FB1800221A700F23FB181B781800BD4604B080BDC04680B586B000AFF860B9607A6050
:400E80001523FB181A0007210120FFF779FF1523FB181B781A021623FB181A801523FB181A0006210120FFF76BFF1523FB181B7819B21623FB181622BA1812880A431A80A9
:400EC0001623FB1800229B5E002B11DA1623FB181622BA180021525E12111A801623FB181B88514A13439AB21623FB181A8007E01623FB181622BA180021525E12111A80B4
:400F0000FB681622BA1812881A801523FB181A0009210120FFF734FF1523FB181B781A021623FB181A801523FB181A0008210120FFF726FF1523FB181B7819B21623FB1898
:400F40001622BA1812880A431A801623FB1800229B5E002B11DA1623FB181622BA180021525E12111A801623FB181B882E4A13439AB21623FB181A8007E01623FB1816222B
:400F8000BA180021525E12111A80BB681622BA1812881A801523FB181A000B210120FFF7EFFE1523FB181B781A021623FB181A801523FB181A000A210120FFF7E1FE15233D
:400FC000FB181B7819B21623FB181622BA1812880A431A801623FB1800229B5E002B11DA1623FB181622BA180021525E12111A801623FB181B880C4A13439AB21623FB1815
:401000001A8007E01623FB181622BA180021525E12111A807B681622BA1812881A80C046BD4606B080BDC04600F0FFFF80B582B000AFFB1D1A001A210120FFF7A1FE0CF005
:401040000FFAC046BD4602B080BDC04680B584B000AF78600A00FB1C1A707B68194A934214D97B68184A934210D87B685B01FA1C127892009B18FB60FB68882292059446C7
:401080006344BB60BB6800221A6017E07B680F4A934213D97B680E4A93420FD87B685B01FA1C127892009B18FB60FB688422D20594466344BB60BB6800221A60C046BD4601
:4010C00004B080BDFFFFFF1FFFFF0F20FFFFFF3FFFFF0F4080B584B000AF78600A00FB1C1A707B68194A934214D97B68184A934210D87B685B01FA1C127892009B18FB6009
:40110000FB688822920594466344BB60BB6801221A6017E07B680F4A934213D97B680E4A93420FD87B685B01FA1C127892009B18FB60FB688422D20594466344BB60BB68A6
:4011400001221A60C046BD4604B080BDFFFFFF1FFFFF0F20FFFFFF3FFFFF0F4080B584B000AF0200FB1D1A700023FB60FB1D1B780F2B17D89A00334BD3181B689F460AF093
:40118000E3FC0300FB6000F06BFC2F4B2E4A126801218A431A6000F083FCFB6818000AF0D7FC4BE0294B1B680133DBB21F221340DBB25B01DAB20B23FB1810321A70FA1DFF
:4011C0000B23FB1812781B789A4236D2FB1D1B78103B002B00DA1F335B111A000A23FB181A70FB1D1B78103B194A134004D5013B20225242134301331A000923FB181A700C
:401200000AF0A2FC0300FB6000F02AFC0A23FB181B78104A944663449B000922BA181278012191400A001A6000F03AFCFB6818000AF08EFC01E0C04600E0C046C046BD4660
:4012400004B080BD1441010010E000E004E000E01F0000806038003880B584B000AF0200FB1D1A700023FB60FB1D1B780F2B17D89A00334BD3181B689F460AF065FC03004D
:40128000FB6000F0EDFB2F4B2E4A126801210A431A6000F005FCFB6818000AF059FC4BE0294B1B680133DBB21F221340DBB25B01DAB20B23FB1810321A70FA1D0B23FB189A
:4012C00012781B789A4236D2FB1D1B78103B002B00DA1F335B111A000A23FB181A70FB1D1B78103B194A134004D5013B20225242134301331A000923FB181A700AF024FC32
:401300000300FB6000F0ACFB0A23FB181B78104A944663449B000922BA181278012191400A001A6000F0BCFBFB6818000AF010FC01E0C04600E0C046C046BD4604B080BD82
:401340005441010010E000E004E000E01F0000804038003880B584B000AF0200FB1D1A700023FB60FB1D1B780F2B04D89A002A4BD3181B689F46294B1B680133DBB21F229E
:401380001340DBB25B01DAB20B23FB1810321A70FA1D0B23FB1812781B789A4236D2FB1D1B78103B002B00DA1F335B111A000A23FB181A70FB1D1B78103B194A134004D5DD
:4013C000013B20225242134301331A000923FB181A700AF0B9FB0300FB6000F041FB0A23FB181B780F4A944663449B000922BA181278012191400A001A6000F051FBFB6851
:4014000018000AF0A5FB01E0C04600E0C046C046BD4604B080BDC0469441010004E000E01F000080A038003880B586B000AF0200FB1D1A70BB1D0A1C1A7000237B61FB1D87
:401440001B780F2B5ED89A00644BD3181B689F460AF07AFB03007B6100F002FB604B1B683B613B691B021B0A3B61BB1D1B781B061A003B6913433B61594B3A691A6000F059
:401480000FFB7B6918000AF063FBA2E00AF05CFB03007B6100F0E4FA524B1B683B613B69514A13403B61BB1D1B781B041A003B6913433B614B4B3A691A6000F0F1FA7B69B8
:4014C00018000AF045FB84E00AF03EFB03007B6100F0C6FA434B1B683B613B691B021B0A3B61BB1D1B781B061A003B6913433B613C4B3A691A6000F0D3FA7B6918000AF0B2
:4015000027FB66E0394B1B680133DBB21F221340DBB25B01DAB20F23FB1810321A70FA1D0F23FB1812781B789A4251D2FB1D1B78103B002B00DA03339B101A000E23FB18AF
:401540001A70FB1D1B78103B294A134004D5013B04225242134301331A000D23FB181A700AF0F2FA03007B6100F07AFA0E23FB181B78204A944663449B001B683B610D2310
:40158000FB181B78DB00FF229A401300DA433B6913403B61BB1D1A780D23FB181B78DB009A4013001A003B6913433B610E23FB181B78104A944663449B003A691A6000F0DA
:4015C0006FFA7B6918000AF0C3FA01E0C04600E0C046C046BD4606B080BDC046D44101001CED00E020ED00E0FFFF00FF04E000E0030000800039003880B586B000AF020043
:40160000FB1D1A7000233B61FB1D1B780F2B5DD89A005D4BD3181B689F461623FB185B4A1A80A9E01623FB18032252421A80A3E01623FB18022252421A809DE01623FB18FD
:40164000012252421A8097E00AF07EFA03003B6100F006FA4E4B1B68FB60FB681A0E1623FB181A8000F01CFA3B6918000AF070FA82E00AF069FA03003B6100F0F1F9454BCB
:401680001B68FB60FB681B0C1AB21623FB18FF210A401A8000F004FA3B6918000AF058FA6AE00AF051FA03003B6100F0D9F9394B1B68FB60FB681A0E1623FB181A8000F0FD
:4016C000EFF93B6918000AF043FA55E0324B1B680133DBB21F221340DBB25B01DAB20B23FB1810321A70FA1D0B23FB1812781B789A423CD2FB1D1B78103B002B00DA033373
:401700009B101A000A23FB181A70FB1D1B78103B224A134004D5013B04225242134301331A000923FB181A700AF00EFA03003B6100F096F90A23FB181B78194A9446634452
:401740009B001B68FB6000F0ABF93B6918000AF0FFF90923FB181B78DB00FA68DA4013001AB21623FB18FF210A401A8003E01623FB18064A1A80C0461623FB1800229B5ED0
:401780001800BD4606B080BD144201000080FFFF1CED00E020ED00E004E000E0030000800039003880B586B000AF78600F23FB1820221A7000237B6100233B611AE00122DA
:4017C0003B699A4013001A007B681340BB60BB68002B0CD00F23FB181A783B69D31A013B01229A4013001A007B6913437B613B6901333B610F23FB181A783B699A42DED85E
:401800007B691800BD4606B080BDC04680B500AF00F0B4FB00F0BEFB00F0A8FBC046BD4680BDC04680B500AFFEE7C04680B582B000AF00237B600AF087F903007B6000F07A
:401840000FF9074B1021180007F0A4FF00F028F97B6818000AF07CF9C046BD4602B080BDBC0B002080B584B000AF786039600023FB603B68002B01D1FFF7D4FF7B68002B53
:4018800003D13B680A221A8014E00AF05DF90300FB6000F0E5F809497B681022180008F081FF00F0FDF8FB6818000AF051F93B6800221A80BD4604B080BDC046BC0B0020A1
:4018C00080B584B000AF786039600023FB603B68002B01D1FFF7A6FF7B68002B03D13B680A221A8023E07B681021180008F026FF0300BB60BB680F2B15D80AF025F903008C
:40190000FB6000F0ADF879680A4B1022180008F049FF00F0C5F8FB6818000AF019F93B6800221A8003E03B68FA2292001A80BD4604B080BDBC0B002080B582B000AFFEF7B0
:40194000D1FF03007B607B681800BD4602B080BD80B500AFC046BD4680BDC04680B584B000AF78607B68002B01D1FFF75BFF084B1B68FB60FB68002B01D0002201E0FA23CC
:40198000DA007B681A80FB681800BD4604B080BDA00B002080B582B000AF7860034B7A681A60C046BD4602B080BDC046A00B002080B582B000AF00237B6000F015F8030021
:4019C0003B600AF0C1F803007B60064B00221A607B6818000AF0BCF83B681800BD4602B080BDC046B00B002080B584B000AF0023FB600AF0A9F80300FB60094B1B68BB6016
:401A0000FB6818000AF0A4F8BB68180000F01EFB03007B607B681800BD4604B080BDC046B00B002080B584B000AF0023FB600AF08BF80300FB60094B1B68BB60FB681800C5
:401A40000AF086F8BB68180000F000FB03007B607B681800BD4604B080BDC0469C0B002080B500AF0B4B1B8801339AB2094B1A80094B1B88002B04D1FEF734FF0200074B70
:401A80001A60054B1B8801339AB2034B1A80C046BD4680BDB40B0020A80B0020A40B002080B582B000AF144B1B88013B9AB2124B1A80114B1B88002B1AD1FEF713FF0200D5
:401AC0000E4B1A600D4B1A680D4B1B68D31A7B600C4B1A687B689A4202D20A4B7A681A60094B1A687B689A4202D2074B7A681A60C046BD4602B080BDA80B0020AC0B0020C0
:401B0000A40B0020B00B00209C0B002080B584B000AF78607B68180000F044F80300FB60FB681800BD4604B080BDC04680B584B000AF0200FB1D1A70FB1D1B78FB60054A39
:401B4000FB68D3181B78BB60BB681800BD4604B080BDC0465442010080B584B000AF0200BB1D1A80BB1D1B88FF2B0AD9BB1D1B881B0A9BB2BB600A4ABB68D3181B78FB6031
:401B800008E0BB1D1B88BB60054ABB68D3181B780833FB60FB681800BD4604B080BDC0465442010080B584B000AF78607B681A4A934216D97B68194A934208D97B681B0E12
:401BC000BB60174ABB68D3181B78FB601EE07B681B0CBB60124ABB68D3181B780833FB6014E07B68FF2B09D97B681B0ABB600C4ABB68D3181B781033FB6007E07B68BB6037
:401C0000074ABB68D3181B781833FB60FB681800BD4604B080BDC046FFFF0000FFFFFF0054420100B0B590B000AF386379637B6B002B03D17B6B002B4AD142E07B6B504A87
:401C4000934203D87B6BFF2B2DD81EE07B6B4D4A93420DD87B6B1B0C3B6100237B613B69BB63494ABB6BD3181B780833FB6382E07B6B1B0EBB610023FB61BB69BB63424A56
:401C8000BB6BD3181B78FB6375E07B6B1B003B6000237B603B68BB633B4ABB6BD3181B781833FB6367E07B6B1B0ABB600023FB60BB68BB63344ABB6BD3181B781033FB63B1
:401CC00059E07B6B002B35D13B6B2D4A934231D97B6B002B06D17B6B002B17D13B6B294A934213D97B6B1B023A6B120EBA62BA6A1A43BA627B6B1B0EFB62BB6ABB63224A41
:401D0000BB6BD3181B782033FB6334E07B6B1B043A6B120C3A623A6A1A433A627B6B1B0C7B623B6ABB63184ABB6BD3181B782833FB6320E07B6B002B05D17B6B002B12D1F2
:401D40003B6BFF2B0FD97B6B1B063A6B140A1C437B6B1D0A2300BB630B4ABB6BD3181B783033FB6307E03B6BBB63074ABB6BD3181B783833FB63FB6B1800BD4610B0B0BD63
:401D8000FFFF0000FFFFFF005442010080B586B000AF78607B68002B01D120230FE07B685B427A6813407B617B691800FFF7AEFE03003B613B691F22D31AFB60FB68180017
:401DC000BD4606B080BDC04680B586B000AF0200FB1D1A70FB1D1B78002B01D1082316E0FB1D1B785B42DAB21723FB18F91D09780A401A701723FB181B781800FFF796FE52
:401E000003003B613B690722D31AFB60FB681800BD4606B080BDC04680B586B000AF0200BB1D1A80BB1D1B88002B01D1102316E0BB1D1B885B429AB21623FB18B91D098831
:401E40000A401A801623FB181B881800FFF784FE03003B613B690F22D31AFB60FB681800BD4606B080BDC04680B586B000AF78607B68002B01D120230FE07B685B427A6866
:401E800013407B617B691800FFF78CFE03003B613B691F22D31AFB60FB681800BD4606B080BDC04690B587B000AF386079603B687A68134301D1402318E03B687C680022E7
:401EC0005942A2413B68080003403B617B6813407B613B697C6918002100FFF7A3FE0300FB60FB683F22D31ABB60BB681800BD4607B090BD80B586B000AF78607B685B08CB
:401F0000174A13407B617A687B69D31A3B613B69144A1340FB603B699B08124A13407B61FA687B69D3183B613B690F4A1340FB603B691B090C4A13407B61FA687B69D3184A
:401F40003B613A6913001B029B181A049B181B0E3B613B69DBB21800BD4606B080BDC04655555555333333330F0F0F0F80B500AFFFF75CFCC046BD4680BDC04680B500AFA6
:401F8000034B00221A60FEF78DFCC046BD4680BDA00B002080B584B000AF00237B60244B00221A80234B00221A80234B00221A60224B00221A60224B00221A60214B002293
:401FC0001A60214B00221A600023FB6009F0BCFD03007B600A23FB1800221A8012E0184B00221A60FFF73CFDFFF75AFD144B1B68FA68D318FB600A23FB181A880A23FB183C
:4020000001321A800A23FB181B88002BE7D00E4BFA681A600A4B00221A600A4B00221A607B68180009F094FDC046BD4604B080BDB40B0020A80B0020A40B0020AC0B002020
:40204000B00B00209C0B0020B80B002080B584B000AF78607B68FB60084B1B68FA689A4205D9064B1B68FA68D31AFB6001E00023FB60FB681800BD4604B080BDB80B00208C
:4020800080B500AFC046BD4680BDC04680B500AF094B1A68094B1B689B00D218084B1A60074B1B681A0007239A4313001A00044B1A60C046BD4680BD844301008843010047
:4020C000CC0B002080B500AFC046BD4680BDC04680B582B000AF7860C046BD4602B080BD80B582B000AF7860C046BD4602B080BD80B582B000AF7860C046BD4602B080BD07
:4021000080B586B000AFF860B9607A603B603B6A9B007A68D3187B617B69072293437B617B69043B7B617B69802252041A607B69043B7B61FA687B691A607B69043B7B61E4
:402140002E4A7B691A607B69043B7B617B692C4A1A607B69043B7B617B692A4A1A607B69043B7B617B69284A1A607B69043B7B613A687B691A607B69043B7B61BA687B6912
:402180001A607B69043B7B617B69032252421A607B69043B7B617B691C4A1A607B69043B7B617B691A4A1A607B69043B7B617B69184A1A607B69043B7B617B69164A1A608F
:4021C0007B69043B7B617B69144A1A607B69043B7B617B69124A1A607B69043B7B617B69104A1A607B69043B7B617B690E4A1A607B691800BD4606B080BDC046D9780000B6
:40220000121212120303030302020202111111111010101009090909080808080707070706060606050505050404040480B582B000AFFEF757FB03007B60234B1A68234B89
:402240001B689A4216D0204B1A681F4B1B6894215B587968CB1A902153501B4B1A681A4B1B6898215958184B1B6890201B58CB1898215350154B1B6894217A685A50FFF721
:4022800097FB03003B60104B1B68B0229A583B689A4204D20C4B1B68B0213A685A500A4B1B68B4229A580A4B1B689A4205D2064B1A68074B1B68B4215350054B00221A60C9
:4022C000C046BD4602B080BDD0190020D8190020DC19002080B500AFC046BD4680BDC04680B582B000AF00237B6009F02DFC03007B60FFF7B5FB00F01DF9FFF7D1FB7B6822
:40230000180009F025FC06F081FA00F02DF9C046BD4602B080BDC04680B584B000AF7860124B1B681900786810F084F90300FB600F4BFA68013A1A600E4B1B68BB60BB68B7
:402340001B021B0ABB600B4BBA681A600A4B0A4A126805210A431A60074B074A126802210A431A60C046BD4604B080BDB843010014E000E020ED00E010E000E080B500AF8C
:40238000C046BD4680BDC04680B584B000AF7860FFF77CFE514B00221A70514B00221A70504B00221A70504B00221A604F4B00221A604F4B00221A704E4B00221A704E4B09
:4023C00000221A604D4B00221A604D4B00221A604C4B1B68FB60FB68002B0FD04A4B1B68BB6008E0BB68013BBB60FB6800221A60FB680433FB60BB68002BF3D1434B0022AC
:402400001A7002F02BFE00F03FFE414B00221A60404B00221A807B68180001F0F1FE7B681B88002B49D17B68180002F0A5F87B681B88002B43D1384B00221A60374B0022A3
:402440001A80374B00221A60364B00221A80364B00221A60354B00221A807B68180005F02BF87B681B88002B2BD17B68180000F089FA7B681B88002B25D17B68180005F049
:4024800089FC7B681B88002B1FD17B68180004F035F87B681B88002B19D17B68180006F037FD7B681B88002B13D100F0AFFFFFF765FF1F4B01221A700CE0C0460AE0C04694
:4024C00008E0C04606E0C04604E0C04602E0C04600E0C046BD4604B080BDC046F01900207117002064170020D0190020D819002000190020F8180020CC190020E81B002039
:40250000DC190020844301008843010070170020E41B0020E01B0020CC1C0020F01B0020881B0020D4190020FC1800208C1B0020F418002080B500AF094B1B78012B0AD115
:40254000084B1B78F92B08D8064B1B780133DAB2044B1A7002E0C04600E0C046BD4680BD71170020F019002080B582B000AF00237B602E4B1B78012B53D109F0E5FA0300CA
:402580007B602B4B1B78002B04D17B68180009F0DFFA47E0264B1B78013BDAB2244B1A70234B1B78002B04D07B68180009F0D0FA38E0204B1B78002B04D07B68180009F0B7
:4025C000C7FA2FE002F062FD03001A001A4B1A70194B1B781900194A0B005B005B189B009A58174B1A60164B1A68164B1B689A4204D17B68180009F0ABFA13E0104B1B6817
:402600008C229A5801328C215A500F4B1B685A1C0D4B1A6009F0BAFA7B68180009F098FA00E0C046BD4602B080BDC04671170020F019002064170020F818002074170020F3
:40264000D8190020D0190020EC19002080B582B000AF00237B60214B1B78002B38D1204B1B78002B36D109F06FFA03007B6002F00DFD03001A001B4B1A701A4B1B7819004A
:40268000194A0B005B005B189B009A58174B1A60164B1A68164B1B689A4204D17B68180009F056FA17E0114B1B688C229A5801328C215A500F4B1B685A1C0E4B1A6009F09A
:4026C00061FA7B68180009F043FABFF36F8F02E0C04600E0C046BD4602B080BDF019002064170020F818002074170020D8190020D0190020EC19002080B584B000AF786010
:402700000023FB60184B1B78002B03D07B68174A1A8026E0164B1B78012B03D07B68154A1A801EE0144B1B78F92B03D97B68134A1A8016E009F008FA0300FB60FFF790F9DC
:402740000D4B1B780133DAB20B4B1A7000F000FEFFF7A6F9FB68180009F0FAF97B6800221A80BD4604B080BDF0190020626D000071170020895E00006417002009520000D4
:4027800080B584B000AF78600023FB60204B1B78002B03D07B681F4A1A8036E01E4B1B78012B03D07B681D4A1A802EE01C4B1B78002B03D17B681B4A1A8026E009F0C4F92F
:4027C0000300FB60FFF74CF9154B1B78013BDAB2134B1A70124B1B78002B09D0FFF760F9FB68180009F0B4F97B680F4A1A800CE000F0C0FDFFF754F9FB68180009F0A8F972
:40280000FFF724FF7B6800221A80BD4604B080BDF0190020656D000071170020895E000064170020646D0000636D000080B584B000AF78602F4B1B78012B03D07B682E4ACF
:402840001A8053E00E23FB1800221A800E23FB181A880E23FB1801321A800E23FB181A880E23FB1801321A800E23FB181A880E23FB1801321A800E23FB181A880E23FB187C
:4028800001321A801D4B1B880E22BA1812889A4203D37B681A4A1A8028E01A4B1B78002B21D102F0F3FB03001A00174B1A70164B1A78164B1A70144B1B781900144A0B00B9
:4028C0005B005B189B009A58124B1A60114B1A68114B1A600B4B01221A7009F041F97B680E4A1A8002E07B680D4A1A80BD4604B080BDC046F41800208B5E0000F2190020F7
:402900008C5E000071170020F81800200019002074170020D8190020D0190020993A00008A5E000080B582B000AF78607B6800221A80024B1800BD4602B080BD257700009C
:4029400080B584B000AF78600023FB6009F0FCF80300FB60FFF784F8084B1B685A1C074B1A60074B1B685A1C054B1A60FFF798F8FB68180009F0ECF8E8E7C046D81B002039
:402980006C170020F0B58DB00AAF7860124B00221A60124B1A68124B1968124B1B68124E124D134C786808900B2007900020069000200590002004900393029101921F23F6
:4029C0000093002332002900200003F099FEC046BD4603B0F0BDC046D81B0020584301005C4301006043010041290000EC430100C41A002080B586B000AFF860B9603B60FC
:402A0000FB1D1A701B4B1B68FA1D342112785A54184B1B68352200219954164B1B683A681100180000F0D0FCBB68002B13D0BB6808337B61FB68BA68DA600E4B1B68F9684A
:402A40000122180000F080F8FA687B691100180000F046F903E0074B1B6800221A63054B1A68BB681100180000F092F8C046BD4606B080BDD019002080B584B000AFF860B1
:402A8000B9607A60BB6836229B5C022B57DB032B03DD063B012B52D82AE0BB6800229A65BB685C2200219952BB687A689A64FB68002B03D0BB68180000F088F9BB68362227
:402AC0009B5C032B03D1BB68180005F0EBFABB68180000F0FDFABB68362200219954BB68352201219954BB6834220021995427E0BB6800229A65BB685C2200219952BB68F2
:402B00007A689A64FB68002B03D0BB68180000F05DF9BB6836229B5C072B03D1BB68180005F0C0FABB68362204219954BB68352201219954BB6834220021995400E0C046EE
:402B4000C046BD4604B080BD80B584B000AFF860B960BB1D1A80FB68BA681A63BB6800225A60BB6800221A60BB6800221A61BB6800225A61BB6800221A83BB680022DA617E
:402B8000BB68FA689A60C046BD4604B080BDC04680B586B000AF786039607B68002B12D07B685A683B68C0215A507B6808337B617B691B683B613B699B68FB60FB689A68E4
:402BC0007B68DA6116E03B6834229B5C022B02D0072B05D009E03B68C021084A5A5009E03B68C021064A5A5004E03B68C021054A5A50C046C046BD4606B080BD0044010053
:402C0000084401001444010080B586B000AF786039603B68C0210D4A5A507B6808337B617B691B683B613B69002B07D03B699B68FB60FB689A687B68DA6102E07B68034AA4
:402C4000DA61C046BD4606B080BDC0461444010080B586B000AF78607B681B6B3B611623FB1801221A8020E03B69DB68FB60FB680833BB60BB681B685B68002B0BD03A69B1
:402C8000BB681100180000F0D3F83A69BB681100180000F025F83B6920333B611623FB181A881623FB18013A1A801623FB181B88002BD9D1C046BD4606B080BD80B582B048
:402CC00000AF78607B6800221A607B6800225A607B6800221A81C046BD4602B080BDC04680B588B000AF786039603B689B68BB611723FB18BA693721525C1A707B681B68BC
:402D0000002B0FD17B6801221A813B6800225A603B6800221A607B683A681A607B683A685A604FE07B681B8901339AB27B681A817B681B68FB610DE0FB699B683B613B69E1
:402D400037229B5C1722BA1812789A4206D3FB695B68FB61FB69002BEED100E0C046FB69002B0FD13B6800225A607B685B68FB603B68FA681A60FB683A685A607B683A6850
:402D80005A601FE0FB691B68002B0CD1FB693A681A603B6800221A603B68FA695A607B683A681A600EE0FB691B68FB603B68FA681A603B68FA695A60FB683A685A60FB695B
:402DC0003A681A60C046BD4608B080BD80B586B000AF78607B681B6B002B25D07B681B6B3B611623FB1801221A8015E03B69DB68FB60FB680833BB603A69BB681100180051
:402E000000F016F83B6920333B611623FB181A881623FB18013A1A801623FB181B88002BE4D17B6800221A63C046BD4606B080BD80B584B000AF786039607B681B685B68F3
:402E4000002B06D17B6800221A607B6800225A6027E03B681B68002B09D13B685B68FB60FB6800221A607B68FA681A6019E03B685B68002B09D13B681B68BB60BB68002277
:402E80005A607B68BA685A600BE03B681B68BB603B685B68FB60BB68FA685A60FB68BA681A607B681B89013B9AB27B681A813B6800225A603B6800221A60C046BD4604B066
:402EC00080BDC04680B584B000AFF860B9607A60BB6836229B5C072B50D89A002B4BD3181B689F46BB6800229A65BB685C2200219952BB687A689A64BB681800FFF766FF73
:402F0000BB6836229B5C032B03D1BB68180005F0C9F8BB68180000F0DBF8BB68362200219954BB68352202219954BB6834220021995426E0BB6800229A65BB685C22002188
:402F40009952BB687A689A64BB681800FFF73EFFBB6836229B5C072B03D1BB68180005F0A1F8BB68362204219954BB68352202219954BB6834220021995402E0C04600E04E
:402F8000C046C046BD4604B080BDC0461844010080B584B000AFF860B9607A601A00BB1C1A80BB6836229B5C072B64D89A00354BD3181B689F46BB687A689A65BB68BA1C76
:402FC0005C2112885A52BB68BA699A64FB68002B09D0BB681800FFF7F9FEBA68FB6811001800FFF711FEBB6836229B5C032B03D1BB68180005F056F8BB68180000F068F80B
:40300000BB68362200219954BB68352200219954BB6834220021995430E0BB687A689A65BB68BA1C5C2112885A52BB68BA699A64FB68002B09D0BB681800FFF7C7FEBA6865
:40304000FB6811001800FFF7DFFDBB6836229B5C072B03D1BB68180005F024F8BB68362204219954BB68352200219954BB6834220021995402E0C04600E0C046C046BD46BB
:4030800004B080BD3844010080B582B000AF00237B6013E07A6813005B009B189B000B4A9B183B603B6800221A813B6800221A603B6800225A607B6801337B607B681F2B1D
:4030C000E8D9C046BD4602B080BDC0467417002080B582B000AF78607B6837229B5C180001F0F0FF7B6837229A5C084B1B789A4204D17B68180000F04BF803E07B68180078
:4031000000F006F8C046BD4602B080BD0019002080B584B000AF78607B6837229B5C1A0013005B009B189B00184A9B18FB60FB681B68002B0FD1FB6801221A817B680022F0
:403140001A617B6800225A61FB687A681A60FB687A685A6015E0FB681B8901339AB2FB681A81FB681A687B681A617B6800225A61FB681B68BB60BB687A685A61FB687A68D3
:403180001A60C046BD4604B080BDC0467417002080B584B000AF78607B6837229B5C1A0013005B009B189B00174A9B18FB60FB681B68002B0FD1FB6801221A817B6800226B
:4031C0001A617B6800225A61FB687A681A60FB687A685A6014E0FB681B8901339AB2FB681A817B6800221A61FB685B68BB607B68BA685A61BB687A681A61FB687A685A605D
:40320000C046BD4604B080BD7417002080B586B000AF78607B681A687B685B689A423AD07B681B681A697B685B689A4218D17B681B687B617B685B683B617B693A695A61EC
:403240007B6900221A613B6900225A613B697A691A617B683A691A607B687A695A601AE07B681B687B617B685B683B617B691B69FB60FB6800225A617B6900221A617B69E4
:403280003A695A613B697A691A617B68FA681A607B687A695A60C046BD4606B080BDC04680B586B000AF78607B6837229B5C1A0013005B009B189B00244A9B187B617B6892
:4032C0005B693B617B681B69FB603B69002B1FD1FB68002B0FD17B6900221A817B6900221A607B6900225A607B6837229B5C180001F012FF1FE07B691B89013B9AB27B695E
:403300001A81FB6800225A617B69FA681A6012E07B691B89013B9AB27B691A813B69FA681A61FB68002B03D17B693A695A6002E0FB683A695A617B6800225A617B680022E5
:403340001A61C046BD4606B080BDC0467417002080B500AF054B1B78012B04D1FDF7C2FA0200034B1A60C046BD4680BD64170020CC19002080B582B000AF0F4B1B78002BCF
:4033800016D1FDF7AFFA02000C4B1B68D31A7B600B4B1A687B689A4202D2094B7A681A60084B1A687B689A4202D2064B7A681A60C046BD4602B080BD64170020CC1900201D
:4033C000E81B0020DC19002080B582B000AF786039603B68002B0AD03A6879680A4B180004F04AFD7B6836220321995403E07B683622022199547B681800FFF751FFC0467A
:40340000BD4602B080BDC046DC1C002080B584B000AF474BFB60474BBB60474BFB60474BFB60474BBB60474BFB60474B7B60474BFB60474BFB60474BFB60474BFB60474BA3
:403440007B60474B7B60474BFB60474B7B60474BFB60474B7B60474BFB60474B7B60474B7B60474B7B60474B7B60474BFB60474BFB60474BFB60474B7B60474BFB60474BFC
:40348000FB60474B7B60474B7B60474B7B60474B7B60474B7B60474B7B60474B7B60474BFB60474BFB60474BFB60474BFB60474B7B60474B7B60474B7B60474BFB60474B3C
:4034C000FB60474BFB60474B7B60474B7B60474B7B60474BBB60474B7B60474BFB60474BFB60474BFB60474BFB60474BFB60474BFB60474BFB60474B7B60474BFB60474BBC
:40350000FB60474B7B60474B7B60474BFB60474BFB60474B7B60474BFB60474BFB60474B7B60474B7B60C046BD4604B080BDC04658440100C0450100594401005A4401007B
:403540005C4401006044010064440100614401008C4401008D4401008E44010090440100924401009644010098440100B8440100BA440100BC440100BE440100C0440100D7
:40358000C2440100C4440100F4440100F5440100F6440100F8440100FA440100FB440100FC440100FE4401000045010002450100044501000645010008450100384501001D
:4035C000394501003A4501003B4501003C4501003E4501004045010068450100694501006A4501006B4501006C4501006E45010070450100744501007545010076450100B4
:403600007745010078450100794501007A4501007B4501007C4501007E4501007F4501008045010082450100844501008545010088450100B8450100B9450100BA45010096
:40364000BC45010080B586B000AFF860B9607A603B6000237B611E4B1B78002B03D03B681C4A1A8030E0FB68002B03D13B681A4A1A8029E008F068FA03007B61FEF7F0F979
:40368000FB68164A1A60FB68BA685A60FB687A681A62FB6800225A62FB6808331800FFF70DFBFB68180000F0DBFA0D4B1B8801339AB20B4B1A80FEF7F3F97B69180008F058
:4036C00047FA3B6800221A80BD4606B080BDC046F0190020E12E0000C35D0000464C4147E01B002090B593B002AFF860B9607A601A00BB1C1A800023BB63BD4B1B78002B8B
:4037000004D07B6DBB4A1A800023F1E1FB68002B04D17B6DB84A1A800023E9E1BB1C1B888422520093423ED084225200934216DC082B38D006DC012B30DB022B33DD042B91
:4037400031D02BE00222FF32934227DB81225200934228DD82225200934224D01EE0A74A934220D0A54A934209DCA54A934215DBA44A934217DDA44A934214D00EE0A34A39
:40378000934210D0A14A934205DCA14A94466344012B03D807E09F4A934204D07B6D9E4A1A800023A4E1C046BB1C1A8880235B00134004D03F23FB1801221A7003E03F23AA
:4037C000FB1800221A703B6D002B02D03B6D00221A603623FB18BA1C12880F210A401A8008F0B2F90300BB63FEF73AF93623FB181B88042B02D0082B5DD0B8E0FB681B6A55
:40380000BA6813403B633A6BBB689A4222D13F23FB181B78012B06D1FB681B6A3A6BD2431A40FB681A627D4B1B6880213A6B5A503B6D002B03D0FB685A6A3B6D1A60FEF7D9
:403840002FF9BB6B180008F083F97B6D00221A803B6B4DE1BB1C00229B5E002B0ADAFEF71FF9BB6B180008F073F97B6D6C4A1A8000233DE16B4B1B78002B0AD0FEF710F981
:40388000BB6B180008F064F97B6D674A1A8000232EE1BB1C1C88BA68F9681023F8187B680093230000F09CF9FEF7FAF8BB6B180008F04EF966E0FB681B6ABA6813403B630C
:4038C0003B6B002B22D03F23FB181B78012B06D1FB681B6A3A6BD2431A40FB681A624F4B1B6880213A6B5A503B6D002B03D0FB685A6A3B6D1A60FEF7D3F8BB6B180008F02D
:4039000027F97B6D00221A803B6BF1E0BB1C00229B5E002B0ADAFEF7C3F8BB6B180008F017F97B6D3E4A1A800023E1E03D4B1B78002B0AD0FEF7B4F8BB6B180008F008F96F
:403940007B6D394A1A800023D2E0BB1C1C88BA68F9681023F8187B680093230000F040F9FEF79EF8BB6B180008F0F2F80AE0FEF797F8BB6B180008F0EBF87B6D264A1A8046
:403980000023B5E0FEF762FE08F0DEF80300BB63FEF766F8214B1B6835229B5C012B14D002DC002B05D065E0022B51D0032B3FD060E03B6D002B04D0184B1B689A6C3B6D42
:4039C0001A607B6D00221A805EE03B6D002B04D0124B1B689A6C3B6D1A60FEF761F8BB6B180008F0B5F87B6D104A1A804CE0C046F0190020AE610000C35D0000088000009D
:403A000001800000028000000480000004810000FF7EFFFF08810000255E0000D0190020B061000064170020636D0000A96100003B6D002B02D03B6D00221A60FEF730F85E
:403A4000BB6B180008F084F87B6D2B4A1A801BE03B6D002B04D0294B1B689A6C3B6D1A60FEF71EF8BB6B180008F072F87B6D244A1A8009E0FEF714F8BB6B180008F068F8C1
:403A80007B6D204A1A80C0467B6D1B88002B01D000232DE0194B1B6880229B583B633F23FB181B78012B19D13623FB181B88042B01D0082B07D1FB681B6A3A6BD2431A400F
:403AC000FB681A620AE0FDF7EBFFBB6B180008F03FF87B6D0C4A1A80002309E0FDF7E0FFBB6B180008F034F87B6D00221A803B6B1800BD4611B090BDD9720000D0190020D2
:403B0000C25D00002E6E0000255E000080B584B000AF78600023FB60104B1B78002B04D07B680F4A1A80002314E008F00DF80300FB60FDF795FF0B4B1B6880229B58BB6093
:403B4000FDF7AEFFFB68180008F002F87B6800221A80BB681800BD4604B080BDF0190020AE610000D019002090B589B002AFF860B9603B60BB1D1A80FB68002B04D13B6875
:403B8000144A1A80002321E0BB1D1B88002B06DB012B09DD104A94466344012B04D93B680E4A1A80002311E0C046FCF79BFE03007B617C69BB1D1A88B968F8683B6800933C
:403BC000230000F0A9F803003B613B691800BD4607B090BDC35D00000080FFFF255E000080B584B000AFF860B9607A601A00BB1C1A800C4B1B687A68DA670A4B1B68BA1CF5
:403C0000842112885A52074B1B68802200219950BB69B968F8680122FEF7ECFEC046BD4604B080BDD019002080B584B000AF78607B68094A1A607B68084A5A607B680022DA
:403C40001A627B680833FB60FB681800FFF736F8C046BD4604B080BD4E4F4E45C445010080B582B000AF78607B680E4ADA617B6800225A610C4B1B68002B03D17B6800227A
:403C80009A6107E0084B1A687B689A61064B1B687A685A61044B7A681A60C046BD4602B080BDC046CC450100E41B002080B584B000AF78607B685B69FB607B689B69BB6030
:403CC000FB68002B0CD1134BBA681A60BB68002B02D0BB6800225A617B6800229A6115E0BB68002B06D1FB6800229A617B6800225A610BE0FB68BA689A61BB68FA685A613A
:403D00007B6800229A617B6800225A61C046BD4604B080BDE41B002080B58CB000AFF860B9603B60BB1D1A8000237B6207F00CFF03007B62FDF794FEBB1D1B88012B12D01B
:403D400002DC002B08D016E080221202934203D0574A934207D00EE0FB681A6ABB681A43FB681A6212E0FB681B6ABA68D2431A40FB681A620AE0FDF793FE7B6A180007F0E0
:403D8000E7FEBB6B4B4A1A8000238DE0FB683A685A62FB6808333B623B6A1B68002B0BD1FDF77EFE7B6A180007F0D2FEBB6B00221A80FB681B6A77E03B6A1B68FB62FB6ACF
:403DC0009B68BB624DE0FB6A5B68FB61BB6A84229A5A1A23FB180F210A401A801A23FB181B88042B02D0082B12D021E0FB681A6ABB6ADB6F13407B61BB6ADA6F7B699A4212
:403E000021D13A687969BB6A180000F057F81AE0FB681A6ABB6ADB6F13407B617B69002B13D03A687969BB6A180000F047F80CE0FDF736FE7B6A180007F08AFEBB6B1E4A11
:403E40001A80002330E0C04600E0C046FB69FB62FB6A002B03D0FB6A9B68BB6201E00023BB62BB6A002BAED1FDF71AFE7B6A180007F06EFEBB1D00229B5E002B01DBFEF795
:403E8000E5FB07F061FE03007B62FDF7E9FDFB681B6A3B61FDF704FE7B6A180007F058FEBB6B00221A803B691800BD460CB080BD01800000255E0000FF3A000080B584B00E
:403EC00000AFF860B9607A60FB688021BA685A50FB68352200219954FB68342200219954FB687A689A64FB6836229B5C022B1CDB032B03DD063B012B17D811E0FB6836223A
:403F00009B5C032B03D1FB68180004F0CBF8FB681800FFF7DDF8FB6836220021995405E0FB6836220421995400E0C046FB681800FEF74CFFC046BD4604B080BD80B58AB08B
:403F400000AFF860B9607A601A00BB1C1A800023BB614C4B1B78002B03D07B6B4A4A1A808CE07B68002B03D17B6B484A1A8085E0BB1C1B88012B03D87B6B454A1A807DE08F
:403F80003023FB181B88032B03D87B6B414A1A8074E003237B617B69002B11D07B687A69134003D07B6B394A1A8067E03023FB181B887A69134003D07B6B364A1A805DE019
:403FC0007B68FB617B683B621223FB18BA1C1288013A1A802623FB1800221A8011E03023FB181B883A6AD3183B62FB693A6A1A603B6AFB612623FB181A882623FB18013227
:404000001A802623FA181223FB1812881B889A42E5D3FB6900221A6007F096FD0300BB61FDF71EFDFB681C4A1A60FB68BA685A60FB687A689A60FB687A68DA60FB68BA1C41
:4040400012889A82FB68BA1C12885A82FB683022BA1812881A82FB68180000F0B1F80F4B1B8801339AB20D4B1A80FDF719FDBB69180007F06DFD7B6B00221A80BD460AB095
:4040800080BDC046F0190020B9560000BB560000BC560000C15600004D454D20EE1B002080B584B000AF786039600023FB607B68002B04D13B681A4A1A8000232BE007F073
:4040C00043FD0300FB60FDF7CBFC7B689B8A002B0AD1FDF7E5FCFB68180007F039FD3B68104A1A80002316E07B68DB68BB60BB681A687B68DA607B689B8A013B9AB27B68B6
:404100009A82FDF7CDFCFB68180007F021FD3B6800221A80BB681800BD4604B080BDC046BF560000C256000080B586B000AFF860B9607A6000237B61FB68002B03D17B68AC
:404140001C4A1A8032E0BB68002B03D17B681A4A1A802BE007F0F8FC03007B61FDF780FCFB689A8AFB685B8A9A4209D3FDF798FC7B69180007F0ECFC7B68104A1A8015E02F
:40418000FB68DA68BB681A60FB68BA68DA60FB689B8A01339AB2FB689A82FDF781FC7B69180007F0D5FC7B6800221A80BD4606B080BDC046BF560000BE560000BA5600006E
:4041C00080B582B000AF78607B6800229A610B4B1B68002B03D17B680022DA6107E0074B1A687B68DA61054B1B687A689A61034B7A681A60C046BD4602B080BD901B0020C3
:4042000080B582B000AF7860064B00221A60064B00221A807B6800221A80C046BD4602B080BDC046901B0020EE1B002080B586B000AFF860B9607A603B6000237B611E4B9D
:404240001B78002B03D03B681C4A1A8030E0FB68002B03D13B681A4A1A8029E007F074FC03007B61FDF7FCFBFB68164A1A60FB68BA685A60FB6808331800FEF71FFDFB6817
:40428000180000F01DF9104B1B8801339AB20E4B1A807B68002B02D0FB687A681A62FDF7FFFB7B69180007F053FC3B6800221A80BD4606B080BDC046F0190020E12E00000B
:4042C000C35D00004D4F4E20F618002080B59AB002AFF860B9607A603B600023FB64FB68002B03D13B6F634A1A80BFE05323FB1800221A7007F028FC0300FB64FDF7B0FB8B
:404300003B68002B07D07968FA683B68100098470300FB6501E00323FB65FB6D012213400AD0BB68F9681C22B8180822FEF762FB5323FB1801221A701C23FB181422BA18E3
:404340005A611423FB187A681A601423FB18BA6E5A60FB6D0222134045D1FB680833BB64BB6C1B68002B3ED0BB6C1B687B6535E07B6D5B687B647B6D5B693B643B6C5B683D
:40438000BB663B6C1B68FB63BB6E002B07D07A68F96BF868BB6E98470300BB6501E00223BB65BB6D0122134012D17B6D9968F8680023009300230022FEF7EAFD6C23FB18EF
:4043C00000229B5E002B03DB5323FB1801221A70BB6D0222134005D17B6C7B657B6D002BC6D100E0C046FDF75BFBFB6C180007F0AFFB5323FB181B78012B01D1FEF726F9FF
:40440000FB6D012213402ED007F09EFB0300FB64FDF726FB184B1B6835229B5C012B0CD002DC002B05D014E0022B0ED0032B08D00FE03B6F00221A800EE03B6F0F4A1A809A
:404440000AE03B6F0E4A1A8006E03B6F0D4A1A8002E03B6F0C4A1A80FDF722FBFB6C180007F076FB02E03B6F00221A80BD4618B080BDC046C35D0000D0190020A961000038
:40448000D9720000C25D00002E6E000080B582B000AF78607B68084A1A607B6800221A627B68064A5A607B6808331800FEF706FCC046BD4602B080BD4E4F4E45D045010080
:4044C00080B582B000AF78607B680E4ADA617B6800225A610C4B1B68002B03D17B6800229A6107E0084B1A687B689A61064B1B687A685A61044B7A681A60C046BD4602B04E
:4045000080BDC046D8450100941B002080B584B000AF78607B685B69FB607B689B69BB60FB68002B0CD1134BBA681A60BB68002B02D0BB6800225A617B6800229A6115E0DD
:40454000BB68002B06D1FB6800229A617B6800225A610BE0FB68BA689A61BB68FA685A617B6800229A617B6800225A61C046BD4604B080BD941B002080B586B000AF7860B0
:40458000324B1B68002B03D17B68314A1A8059E0304B1B88002B03D17B682F4A1A8051E02A4B1B687B61294B1B683B613B6910333B61284B1A880C23FB18013A1A800E2340
:4045C000FB1800221A8018E07B693A691A607B6900225A607B6900221A817B690022DA607B6910337B613B6910333B610E23FB181A880E23FB1801321A800E23FA180C2363
:40460000FB1812881B889A42DED37B6900221A607B6900225A607B6900221A817B690022DA600A4B1A680D4B1A600A4B1A880B4B9A800A4B0022DA80084B00221A817B68A8
:4046400000221A80BD4606B080BDC046984301001E570000904301001D570000B81A002080B584B000AF78600E23FB187A6852891A807B685B89002B26D07B681B68BB6003
:40468000154B1A68BB681A607B685A68124B1A60114BDA887B685B89D31A9AB20E4BDA800D4B9A887B685B89D3189AB20A4B9A807B6800225A817B6800229A817B680022A2
:4046C0001A607B6800225A600E23FB181B881800BD4604B080BDC046B81A002080B582B000AF78600A00BB1C1A807B68BA1C12881A817B6800225A817B6800229A817B685C
:4047000000221A607B6800225A60C046BD4602B080BDC04680B586B000AFF860B9607A603B60FB685B89002B0DD1BB6800221A807B68002B02D07B6800221A603B68224A83
:404740001A8000233CE0FB685B687B617B695B683B617B691A89BB681A807B68002B03D07B69DA687B681A607B691A68FB685A60FB685B68002B06D1FB6800221A60FB6866
:4047800000225A8105E0FB685B89013B9AB2FB685A810E4B1A687B691A600C4B7A691A600A4B9B8801339AB2084B9A80074BDB88013B9AB2054BDA803B6800221A803B69CE
:4047C0001800BD4606B080BD92650000B81A002080B586B000AFF860B9601900BB1D1A803B1D0A1C1A80FB685A89FB681B899A4203D37B6A384A1A806BE0384B9B88002B78
:4048000003D17B6A364A1A8063E0344B1B687B617B691A68314B1A60304B9B88013B9AB22E4B9A802D4BDB8801339AB22B4BDA802A4B1A89294BDB889A4203D2274BDA88D0
:40484000264B1A81FB685B89002B0CD1FB687A691A60FB687A695A60FB6801225A817B6900221A601EE03B1D1B88102213400CD1FB681B683B613B697A691A60FB687A6918
:404880001A607B6900221A6006E0FB685A687B691A60FB687A695A60FB685B8901339AB2FB685A81FB689A89FB685B899A4203D2FB685A89FB689A817B69BA685A607B69AA
:4048C000BA1D12881A817B693A6ADA607B6A00221A80BD4606B080BD93650000B81A00201D57000080B586B000AFF860B9607A6000237B61214B1B78002B03D07B68204A47
:404900001A8037E0FB68002B03D17B681D4A1A8030E007F019F903007B61FDF7A1F8FB68194A1A60FB68BA685A60FB6800221A62FB6800225A62FB68282200219954FB681C
:404940000022DA62FB6808331800FEF7B7F9FB68180000F079FA0D4B1B8801339AB20B4B1A80FDF79DF87B69180007F0F1F87B6800221A80BD4606B080BDC046F01900200C
:40498000E12E0000C35D00004D555458F01B002080B58EB000AFF860B9603B60BB1D1A8000237B63884B1B78002B03D03B6C874A1A8006E1FB68002B03D13B6C844A1A80E0
:4049C000FFE0BB1D1B88002B07D080221202934203D03B6C7F4A1A80F3E0C04607F0B4F803007B63FDF73CF8FB6828229B5C002B1FD1794B1A68FB685A62FB68282201217B
:404A000099543B68002B03D0FB68DA6A3B681A60714B1B68FA681100180000F071FAFDF73FF87B6B180007F093F83B6C00221A80C7E0FB685A6A684B1B689A4227D1FB68B6
:404A400028229B5CFF2B09D1FDF72AF87B6B180007F07EF83B6C614A1A80B2E0FB6828229B5C0133D9B2FB68282299543B68002B03D0FB68DA6A3B681A60FDF711F87B6BAD
:404A8000180007F065F83B6C554A1A8099E0BB1D00229B5E002B0FDAFDF702F87B6B180007F056F83B68002B02D03B6800221A603B6C4C4A1A8084E04B4B1B78002B0FD0AC
:404AC000FCF7EEFF7B6B180007F042F83B68002B02D03B6800221A603B6C444A1A8070E0FB685B6A3B633B6B37229A5C3A4B1B6837215B5C9A4208D9374B1B6837229A5CC6
:404B00003B6B1100180003F05DF8BB68F9681022B8180422FDF76EFFFCF7C2FF7B6B180007F016F8FDF792FD07F00EF803007B63FCF796FF284B1B6835229B5C012B14D05D
:404B400002DC002B05D032E0022B24D0032B18D02DE03B68002B04D01F4B1B689A6C3B681A603B6C00221A8025E03B68002B04D0194B1B689A6C3B681A603B6C1C4A1A8094
:404B800019E03B68002B02D03B6800221A603B6C184A1A800FE03B68002B04D00E4B1B689A6C3B681A603B6C134A1A8003E03B6C124A1A80C046FCF773FF7B6B180006F06D
:404BC000C7FFBD460EB080BDF0190020AE610000C35D0000255E0000D01900208457000082570000B061000064170020636D0000A9610000D9720000C25D00002E6E0000CD
:404C000090B58DB002AFF8607A600A23FB180A1C1A8000237B62724B1B78002B03D07B68704A1A80D9E0FB68002B03D17B686E4A1A80D2E00A23FB181B88002B07D0802201
:404C40001202934203D07B68684A1A80C5E0C04606F07AFF03007B62FCF702FFFB685A6A634B1B689A4209D0FCF71AFF7B6A180006F06EFF7B685F4A1A80AEE0FBF732FE0C
:404C800003003B62FB683A6ADA62FB6828229B5C013BD9B2FB6828229954FB6828229B5C002B09D0FCF7FCFE7B6A180006F050FF7B68514A1A8090E04D4B1B68FA6811001F
:404CC000180000F02DF9FB680833FB61FB691B68002B10D1FB6800225A62FB68282200219954FCF7DDFE7B6A180006F031FF7B6800221A8071E03E4B1B6837229A5C3C4BDA
:404D00001B6838215B5C9A423DD0394B1B681B22BC18180000F020F903002370344B1B683822995C1B23FA181B23FB181C780B1CD8B2E1B2884200D9231C13702C4B1B68FF
:404D400037229B5C1B22BA1812789A421BD9284B1B681800FEF7A4FA254B1B681B22BA18372112785A541B23FB181B78180000F0A9F91F4B1B681800FEF70AFA1F4B1B2214
:404D8000BA1812781A70FB691B689B687B61FB687A695A62FB68282201219954FA687B691100180000F0ACF87969F8683B6A009300230022FEF7ECF8FCF772FE7B6A18008E
:404DC00006F0C6FE0A23FB1800229B5E002B01DBFDF73CFC7B6800221A80BD460BB090BDF01900200E620000C35D0000255E0000D019002081570000835700000019002091
:404E000080B582B000AF78607B680D4A1A607B680C4A5A607B6800221A627B6800225A627B682822002199547B680022DA627B6808331800FDF742FFC046BD4602B080BDBC
:404E40004E4F4E45DC45010080B582B000AF78607B680E4ADA617B6800225A610C4B1B68002B03D17B6800229A6107E0084B1A687B689A61064B1B687A685A61044B7A68A7
:404E80001A60C046BD4602B080BDC046E4450100CC1C002080B584B000AF78607B685B69FB607B689B69BB60FB68002B0CD1134BBA681A60BB68002B02D0BB6800225A61CF
:404EC0007B6800229A6115E0BB68002B06D1FB6800229A617B6800225A610BE0FB68BA689A61BB68FA685A617B6800229A617B6800225A61C046BD4604B080BDCC1C0020EB
:404F000080B582B000AF786039607B68DA6B3B681A627B683A68DA63C046BD4602B080BD80B584B000AF786039607B683C33FB6003E0FB681B682033FB60FB681A683B68B4
:404F40009A42F6D1FB681B681A6AFB681A60C046BD4604B080BDC04680B586B000AF78601323FB181F221A707B683C337B611FE07B691B689B68FB60FB68002B14D0FB687A
:404F80009A680B23FB183721525C1A700B23FA181323FB1812781B789A4205D21323FB180B22BA1812781A707B691B6820337B617B691B68002BDBD11323FB181B781800A1
:404FC000BD4606B080BDC04680B58AB002AF78607B68DB6BFB6139E0FB691B6ABB61FBF781FC03007B61FB697A69DA62FA697B6811001800FFF794FFFB6908333B613B6972
:405000001B68002B07D1FB69282200219954FB6900225A6218E03B691B689B68FB60FB697A685A62FB69282201219954FA69FB6811001800FFF764FFF968F8697B6900932F
:4050400000230022FDF7A4FFBB69FB61FB69002BC2D1C046BD4608B080BDC04680B582B000AF00237B6007E0074B7A6892000021D1507B6801337B607B68002BF4D0C046E1
:40508000BD4602B080BDC0466017002080B582B000AFFB1D00221A70094B3B603B681B681800FCF733FD0300D9B2FB1DFA1D12788A181A70FB1D1B781800BD4602B080BD0F
:4050C0006017002080B586B000AF0200FB1D1A701723FB1800221A70FB1D1B783B610123FB603B691F22D31AFA689A401300FB601723FB181A781723FB181978054B89008A
:40510000C958FB681943034B9200D150C046BD4606B080BD6017002080B586B000AF0200FB1D1A701723FB1800221A70FB1D1B783B610123FB603B691F22D31AFA689A4070
:405140001300FB601723FB181A781723FB181978064B8900CB58F968C9431940034B9200D150C046BD4606B080BDC0466017002080B586B000AFF860B9603B60BB1D1A800F
:4051800000237B61234B1B78002B03D03B68224A1A803BE0FB68002B03D13B681F4A1A8034E0BB1D1B88002B03D13B681C4A1A802CE006F0C9FC03007B61FCF751FCFB68AB
:4051C000184A1A60FB68BA685A60FB6820331A00BB1D1B8819001000FFF780FAFB6808331800FDF76BFDFB68180000F039FA0E4B1B8801339AB20C4B1A80FCF751FC7B696F
:40520000180006F0A5FC3B6800221A80BD4606B080BDC046F0190020E12E0000C35D00009465000051554555D419002080B58EB000AFF860B9603B60BB1D1A8000233B6365
:40524000704B1B78002B04D07B6C6F4A1A800023D3E0FB68002B04D17B6C6C4A1A800023CBE03B68002B04D17B6C694A1A800023C3E0BB1D1B88002B08D0802212029342C3
:4052800004D07B6C634A1A800023B6E0C0463B6C002B02D03B6C00221A6006F055FC03003B63FCF7DDFBFB68203318007B6C3A6C3968FFF72FFA03007B637B6C1B88002BE2
:4052C00007D1FCF7EDFB3B6B180006F041FC7B6B93E0BB1D00229B5E002B0ADAFCF7E0FB3B6B180006F034FC7B6C4B4A1A80002383E04A4B1B78002B0AD0FCF7D1FB3B6BCF
:40530000180006F025FC7B6C454A1A80002374E0BB68F9681022B8180522FDF76BFBFCF7BFFB3B6B180006F013FCFDF78FF906F00BFC03003B63FCF793FB3A4B1B68352246
:405340009B5C012B1ED002DC002B05D045E0022B32D0032B27D040E0324B1B689B6D7B63304B1B685C229A5A3B681A803B6C002B04D02C4B1B689A6C3B6C1A607B6C002242
:405380001A8033E000237B633B6800221A803B6C002B04D0234B1B689A6C3B6C1A607B6C214A1A8022E000237B633B6800221A807B6C1E4A1A8019E000237B633B6800222C
:4053C0001A803B6C002B04D0164B1B689A6C3B6C1A607B6C164A1A8008E000237B633B6800221A807B6C134A1A80C046FCF758FB3B6B180006F0ACFB7B6B1800BD460EB0F5
:4054000080BDC046F0190020AE610000C35D0000D5620000255E0000B061000064170020636D0000D0190020A9610000D9720000C25D00002E6E000080B58AB000AFF8600C
:405440007A600A23FB180A1C1A8000233B62424B1B78002B04D07B68404A1A80002376E0FB68002B04D17B683D4A1A8000236EE00A23FB181B8880225200934213D08022EA
:405480005200934202DC002B0DD007E080221202934208D081221202934204D07B68314A1A80002353E0C04606F04EFB03003B62FCF7D6FAFB680833FB61FB691B68002B33
:4054C0000AD1FCF7EDFA3B6A180006F041FB7B68254A1A8000233AE02623FB1800221A80FBF700FA0300BB6117E0FB691B689B687B61BA697969FB681800FDF7BDFA26238B
:40550000FB181A882623FB1801321A800A23FB181A8880235B009A4204D1FB691B68002BE3D100E0C046FCF7BBFA3B6A180006F00FFB0A23FB1800229B5E002B01DBFDF795
:4055400085F87B6800221A802623FB181B881800BD460AB080BDC046F0190020AA610000C35D0000255E0000AB61000090B589B002AFF860B9601900BB1D1A803B1D0A1C6C
:405580001A80FB68002B03D1BB6A204A1A803AE03B1D1B8884229200934222D084229200934208DC102B1CD080229200934218D0002B16D011E0164A934212D0144A93425D
:4055C00004DC8022120293420BD006E082221202934206D00F4A934203D0BB6A0E4A1A8011E0C046FBF77EF903007B613B1D1C88BB1D1A88B968F868BB6A01937B6900939E
:40560000230000F089F8BD4607B090BDC35D00001080000010820000255E000080B582B000AF78607B6820331800FFF719F87B68094A1A607B68094A5A607B6820330021D0
:405640001800FFF74BF87B6808331800FDF736FBC046BD4602B080BD4E4F4E45E845010080B582B000AF78607B680E4ADA617B6800225A610C4B1B68002B03D17B68002226
:405680009A6107E0084B1A687B689A61064B1B687A685A61044B7A681A60C046BD4602B080BDC046EC450100881B002080B584B000AF78607B685B69FB607B689B69BB6052
:4056C000FB68002B0CD1134BBA681A60BB68002B02D0BB6800225A617B6800229A6115E0BB68002B06D1FB6800229A617B6800225A610BE0FB68BA689A61BB68FA685A6120
:405700007B6800229A617B6800225A61C046BD4604B080BD881B002090B58DB002AFF860B9601900BB1D1A803B1D0A1C1A800023FB6106F009FA0300FB61FCF791F9FB68EE
:405740000833BB61BB691B68002B24D13B1D1B881022134004D12623FB1800221A8003E02623FB1810221A80FB68203318002623FB181C88BB1D1A88B968FB6B0193BB6B0A
:4057800000932300FFF724F8FCF78AF9FB69180006F0DEF930E0BB691B683B6217E03B6A9B687B613B6A5B683B61BB1D1C88BA687969F868BB6B00932300FDF7E9FB3B1DA3
:4057C0001A8880239B00134005D03B693B623B6A002BE4D100E0C046FCF762F9FB69180006F0B6F93B1D00229B5E002B01DBFCF72DFFFB6B00221A80BD460BB090BDC046BA
:4058000080B586B000AFF860B9607A603B6000237B611E4B1B78002B03D03B681C4A1A8030E0FB68002B03D13B681A4A1A8029E006F08AF903007B61FCF712F9FB68164A97
:405840001A60FB687A681A62FB6800225A62FB68BA685A60FB6808331800FDF72FFAFB68180000F061FA0D4B1B8801339AB20B4B1A80FCF715F97B69180006F069F93B6871
:4058800000221A80BD4606B080BDC046F0190020E12E0000C35D000053454D418C1B002080B58EB000AFF860B9603B60BB1D1A8000237B636D4B1B78002B04D03B6C6C4AA3
:4058C0001A800023CEE0FB68002B04D13B6C694A1A800023C6E0BB1D1B88002B08D080221202934204D03B6C634A1A800023B9E0C04606F029F903007B63FCF7B1F8FB6898
:405900001B6A002B19D0FB681B6A5A1EFB681A623B68002B03D0FB685A6A3B681A60FB681B6A3B63FCF7BCF87B6B180006F010F93B6C00221A803B6B94E0BB1D00229B5E10
:40594000002B13DA3B68002B02D03B6800221A60FB681B6A3B63FCF7A3F87B6B180006F0F7F83B6C454A1A803B6B7BE0444B1B78002B10D03B68002B02D03B6800221A605C
:40598000FCF78EF87B6B180006F0E2F83B6C3D4A1A80002366E0BB68F9681022B8180622FDF728F8FCF77CF87B6B180006F0D0F8FCF74CFE06F0C8F803007B63FCF750F87B
:4059C000314B1B6835229B5C012B14D002DC002B05D032E0022B24D0032B18D02DE03B68002B04D0284B1B689A6C3B681A603B6C00221A802CE03B68002B04D0224B1B685A
:405A00009A6C3B681A603B6C204A1A8020E03B68002B02D03B6800221A603B6C1C4A1A8016E03B68002B04D0174B1B689A6C3B681A603B6C174A1A800AE03B6C164A1A8045
:405A4000FCF72EF87B6B180006F082F8002309E0FB681B6A3B63FCF723F87B6B180006F077F83B6B1800BD460EB080BDF0190020AE610000C35D0000255E0000B0610000F4
:405A800064170020636D0000D0190020A9610000D9720000C25D00002E6E000080B58AB000AFF8607A600A23FB180A1C1A8000233B62424B1B78002B04D07B68404A1A802C
:405AC000002376E0FB68002B04D17B683D4A1A8000236EE00A23FB181B8880225200934213D080225200934202DC002B0DD007E080221202934208D081221202934204D06D
:405B00007B68314A1A80002353E0C04606F01CF803003B62FBF7A4FFFB680833FB61FB691B68002B0AD1FBF7BBFF3B6A180006F00FF87B68254A1A8000233AE02623FB1800
:405B400000221A80FAF7CEFE0300BB6117E0FB691B689B687B61BA697969FB681800FCF78BFF2623FB181A882623FB1801321A800A23FB181A8880235B009A4204D1FB69B7
:405B80001B68002BE3D100E0C046FBF789FF3B6A180005F0DDFF0A23FB1800229B5E002B01DBFCF753FD7B6800221A802623FB181B881800BD460AB080BDC046F019002011
:405BC000AA610000C35D0000255E0000AB61000090B587B000AFF8607A600A23FB180A1C1A80FB68002B04D17B681A4A1A8000232BE00A23FB181B8880229200934213D04D
:405C000080229200934202DC002B0DD007E080221202934208D082221202934204D07B680D4A1A80002310E0C046FAF75BFE03007B617C687A690A23FB181988F868230089
:405C400000F0CEF803003B613B691800BD4607B090BDC046C35D0000255E000080B586B000AFF860B9607A6000237B611B4B1B78002B03D07B681A4A1A802BE0FB68002B8E
:405C800003D17B68174A1A8024E07B6800221A8005F05AFF03007B61FBF7E2FEFB681B6A002B03D0FB68BA681A620DE0FB6808333B613B691B68002B03D1FB68BA681A625B
:405CC00002E07B68084A1A80FBF7EAFE7B69180005F03EFFBD4606B080BDC046F0190020C66D0000C35D00005F71000080B582B000AF78607B680A4A1A607B6800221A6283
:405D00007B6800225A627B68064A5A607B6808331800FCF7D3FFC046BD4602B080BDC0464E4F4E45F045010080B582B000AF78607B680E4ADA617B6800225A610C4B1B6858
:405D4000002B03D17B6800229A6107E0084B1A687B689A61064B1B687A685A61044B7A681A60C046BD4602B080BDC046F8450100FC18002080B584B000AF78607B685B6967
:405D8000FB607B689B69BB60FB68002B0CD1134BBA681A60BB68002B02D0BB6800225A617B6800229A6115E0BB68002B06D1FB6800229A617B6800225A610BE0FB68BA6837
:405DC0009A61BB68FA685A617B6800229A617B6800225A61C046BD4604B080BDFC18002080B58CB002AFF8607A603B600A23FB180A1C1A8000233B6205F0A6FE03003B6292
:405E0000FBF72EFEFB680833FB61FB691B68002B24D1FB681B6A01330AD1FBF741FE3B6A180005F095FE3B68274A1A80002347E0FB681B6A5A1CFB681A62FB681B6ABB619D
:405E4000FB687A685A62FBF72BFE3B6A180005F07FFE3B6800221A80BB6931E0FB691B687B6216E07B6A9B687B617B6A5B683B617969F8687B68009300230022FDF788F810
:405E80000A23FB181A8880239B00134005D03B697B627B6A002BE5D100E0C046FBF700FE3B6A180005F054FE0A23FB1800229B5E002B01DBFCF7CAFB3B6800221A800023DD
:405EC0001800BD460AB080BDC56D000080B586B000AF78600023FB6005F036FE0300FB60FBF7BEFD4D4B00221A804D4B00221A604C4B00221A604C4B00221A604B4B002214
:405F00001A604B4B00221A604A4B00221A81FBF7C7FDFB68180005F01BFE05F015FE0300FB60FBF79DFD444B1B687B61FBF7B8FDFB68180005F00CFE3EE005F005FE03000A
:405F4000FB60FBF78DFD7B69B022002199507B69B422002199507B6900225A677B69A422002199507B698C22002199507B698822002199527B698A22002199527B699822DB
:405F8000002199507B699C2200219950FAF7AAFC01007B69942299507B696033BB60BB6800229A817B69BC229B587B61FBF778FDFB68180005F0CCFD7B69002BBDD105F05B
:405FC000C3FD0300FB60FBF74BFD1C4B1B683B61FBF766FDFB68180005F0BAFD14E005F0B3FD0300FB60FBF73BFD3B692033BB60BB6800229A813B699B693B61FBF750FD31
:40600000FB68180005F0A4FD3B69002BE7D17B6800221A80C046BD4606B080BDD619002068170020C01C0020E4190020D41B0020E81B0020B81A0020E0190020881B002066
:4060400080B586B000AF786000233B610E23FA18414B1100180001F0A5F90E23FB181B88002B05D00E23FB181A887B681A806FE00E23FB181A000021022002F0E7F90E23AB
:40608000FB181B88002B05D00E23FB181A887B681A805DE005F058FD03003B61FBF7E0FC2E4B00221A60FBF7FBFC3B69180005F04FFD00237B612A4B1A682A4B1B689A420E
:4060C00009D9274B1A68274B1B68190010000CF0B1FA03007B617B69002B07D1204B1B680A2118000CF0A6FA03007B610E23FA187B690021180002F0A9F90E23FA18164BFB
:406100001100180000F06EFE0E23FB181B88002B05D00E23FB181A887B681A8018E005F013FD03003B61FBF79BFC0F4B00221A600A4B1A680D4B1A600D4B01221A70FBF7D5
:40614000AFFC3B69180005F003FD7B6800221A80BD4606B080BDC046F41900206C170020B8430100A043010068170020C81B0020F918002080B590B000AF78600023BB616A
:4061800008E0CD4B1B685B000A22BA180021180002F05CF9C94B1B78012BF2D10A23FB181800FFF793FE0023FB61C54B1A68C24B1B689A4209D9C24B1A68BF4B1B6819007A
:4061C00010000CF037FA0300FB61FB69002B07D1BB4B1B680A2118000CF02CFA0300FB61FAF780FB03007B61FBF71CFC0200B54B1A6005F0A9FC0300BB61FBF731FCB24BA9
:406200001A68B24B1A60B04B00221A60FBF748FCBB69180005F09CFCAD4B1A68AB4B1B689A424FD9AA4B1B68AA4A934204D8AA4B7B6201233B6223E0A54B1B68A74A9342EC
:4062400005D8FA239B007B620A233B6218E0A04B1B68A34A934204D864237B6264233B620EE09B4B1B689F4A934205D80A237B62FA239B003B6203E001237B62964B3B62A3
:40628000934B1B68396A18000CF0D4F903003B618E4B1B687A6A5343396918000CF0CAF903009BB28C4AD31A9AB28F4B1A808F4B1A888D4B1B889A4207D28B4B1A888B4B3E
:4062C0001A8002E0884B00221A80FBF7FBFE0023BB6305F039FC0300BB61FBF7C1FB844B1B68BB62FBF7DCFBBB69180005F030FC2BE005F029FC0300BB61FBF7B1FBBB6AD4
:4063000098229A58BB6A9C215A50BB6A982200219950FBF7C5FBBB69180005F019FCBB6A9C229B58BA6BD318BB6305F00DFC0300BB61FBF795FBBB6ABC229B58BB62FBF79C
:40634000AFFBBB69180005F003FCBB6A002BD0D1BB6B002B30D0BB6B5E4A934204D85E4B3B6301237B6320E0BB6B5C4A934205D8FA239B003B630A237B6316E0BB6B584A9C
:40638000934204D864233B6364237B630DE0BB6B544A934205D80A233B63FA239B007B6303E001233B634C4B7B63796BB86B0CF041F90300FB6203E000233B630123FB6202
:4063C00005F0C2FB0300BB61FBF74AFB484B1B68BB62FBF765FBBB69180005F0B9FB46E0BB6A9C229B583A6B5343F96A18000CF021F903001A003E23FB181A803E23FB18C4
:406400001B88354A934203D93E23FB18324A1A80BB6A3E22BA18882112885A52BB6A8A229B5A3E22BA1812889A4205D9BB6A3E22BA188A2112885A52BB6AAC331900BB6AE3
:40644000A8331A000A23FB18B86A00F023FF05F07BFB0300BB61FBF703FBBB6ABC229B58BB62FBF71DFBBB69180005F071FBBB6A002BB5D11F4B1B78012B07D11D4B00221E
:406480001A700A23FB181800FFF720FDFAF72AFA02007B69D31AFB60174B1A68FB689A4202D2154BFA681A600A23FA18FB690021180001F0CBFF93E6A0430100F91800204C
:4064C000B8430100D41B00206C170020DC1B0020C81B00207F1A060010270000FF083D00FF596202FF83D717E8190020D6190020E0190020EC1B002068170020F0B58DB09D
:406500000AAF7860254B00221A60254B00221A60244B00221A60244B00221A70234B00221A70234B1B68002B03D17B68214A1A8031E0214B1A68214B1B689A4203D27B6818
:406540001F4A1A8027E01F4B1B781E2B03D97B681D4A1A801FE01B4B1A78154B19681B4B1868154B1B681A4CA4461A4E1A4D7C68089403240794002406940024059400246A
:4065800004940393029001910092002362463100280000F0B5F8BD4603B0F0BD6C170020DC1B0020C81B0020F9180020EC1B0020A44301002B6E0000AC430100B443010055
:4065C0002C6E00009C4301002A6E0000A843010075610000FC450100F41B002090B587B000AFF8607A600B23FB180A1C1A7000237B61FB68002B08D0FB6836229B5CFF2BC7
:4066000003D17B68374A1A8069E0374B1B78002B03D07B68354A1A8061E00B23FB181B781E2B03D97B68324A1A8058E005F08CFA03007B61FBF714FAFB68002B10D12D4B84
:406640001B78012B09D0FBF72BFA7B69180005F07FFA7B68284A1A8041E0284B1B68FB60FB680B22BA18382112785A54FB68DB6B002B1DD0FB6837229B5C0B22BA181278B0
:406680009A4215D91323FC18FB681800FEF764FC030023700B23FA181323FB1812781B789A4205D90B23FB181322BA1812781A700B23FB181A78FB681100180001F082FAD8
:4066C000FBF7EEF97B69180005F042FA094B1B78012B01D1FBF7BAFF7B6800221A80BD4607B090BD2D6E0000F0190020497100007362000071170020895E0000D019002073
:4067000090B58DB002AFF860B9607A603B600023BB61864B1B78002B03D0BB6D844A1A8000E1FB68002B03D1BB6D824A1A80F9E07B68002B03D1BB6D7F4A1A80F2E0FB6BC0
:40674000002B03D1BB6D7D4A1A80EBE07C4B1B687A6C9A4203D2BB6D7A4A1A80E2E03A6C7B6C9A4203D3BB6D774A1A80DAE03823FB181B781F2B03D9BB6D744A1A80D1E0C9
:406780003823FB181B781F2B07D1FA68704B9A4203D0BB6D6D4A1A80C4E0FB68180000F0A5FEBB6D00221A805423FB181B880122134005D15423FB181B880222134017D0D7
:4067C0005423FB181B880222134011D0FB6BFB6100237B6208E0FB6900221A60FB690433FB617B6A01337B627A6A7B6C9A42F2D33B6C9B00FA6BD3187B617C69FA6B3968B8
:4068000078685423FB181B8801937B6C00932300FBF776FC0300FB61FA69FB6B9A4203D2BB6D4C4A1A807DE0FB687A689A62FB683A68DA62FB68BA689A60FB683822BA1898
:40684000372112785A54FB683822BA18382112785A54FB68FA691A60FB687A69DA60FB683A6D5A60FB68FA6B5A62FB687A6C1A64FB685422BA18442112885A522323FB18EA
:4068800000221A700EE02323FB181A78FB681E3292000021D1502323FB181A782323FB1801321A702323FB181B78002BEBD0FB6860331A004823FB181B8819001000FDF7AB
:4068C0000DFFFB681800FBF703FC05F03DF90300BB61FBF7C5F8FB6837229B5C1800FEF7F1FBFB681800FCF753FCFB68180000F07FFD194B1B8801339AB2174B1A80174BF2
:406900001B78012B06D0FBF7CBF8BB69180005F01FF907E0FBF7C4F8BB69180005F018F9FBF794FEBD460BB090BDC046F01900204A710000AD7100004F7100002F6E0000F9
:40694000B4430100306E0000316E000073620000C41A00202C6E0000F21900207117002090B585B000AF786039600023FB601D4B1B78002B05D03B68EC2292011A8000238E
:406980002CE07B68002B0ED105F0DEF80300FB60FBF766F8144B1B687B60FBF781F8FB68180005F0D5F805F0CFF80300FB60FBF757F87B6860330A22BC181800FDF750FED5
:4069C00003002380FBF76CF8FB68180005F0C0F83B6800221A800A23FB181B881800BD4605B090BDF0190020D019002090B589B000AFF8607A603B600A23FB180A1C1A80E8
:406A00000023BB61794B1B78002B04D03B6B784A1A800023E6E07B68002B04D13B6B754A1A800023DEE00A23FB181B88002B08D080221202934204D03B6B6F4A1A800023B2
:406A4000D0E0C0463B68002B02D03B6800221A6005F07AF80300BB61FBF702F8674B1B6860337B613B6B3A6879687869FDF752FE0300FB613B6B1B88002B21D13B68002B8A
:406A800016D05E4B1C68F9F72DFF02003B681B68D31A2367594B1B685A6F584B1B681B6F9A4205D2554B1B68544A1268126F5A67FAF7F6FFBB69180005F04AF8FB6991E00A
:406AC0000A23FB1800229B5E002B0ADA3B6B4C4A1A80FAF7E5FFBB69180005F039F8002380E0484B1B78002B0AD0FAF7D9FFBB69180005F02DF83B6B434A1A80002371E011
:406B0000FB68022200210020FBF774FFFAF7C8FFBB69180005F01CF8FBF798FD05F014F80300BB61FAF79CFF344B1B6835229B5C002B02D0012B2ED03CE0304B1B689B6D5F
:406B4000FB612E4B1B685C229A5A7B681A803B68002B1CD0294B1B689A6C3B681A60274B1C68F9F7BFFE0200244B1B689B6CD31A2367224B1B685A6F204B1B681B6F9A42D8
:406B800005D21E4B1B681D4A1268126F5A673B6B00221A801FE00023FB617B6800221A803B68002B02D03B6800221A603B6B174A1A8010E00023FB617B6800221A803B683F
:406BC000002B04D00D4B1B689A6C3B681A603B6B0F4A1A80C046FAF763FFBB69180004F0B7FFFB691800BD4609B090BDF0190020AE610000D5620000255E0000D019002040
:406C0000B061000064170020636D0000A9610000D972000090B589B002AFF860B9601900BB1D1A803B1D0A1C1A803B1D1B88102B0ED002DC002B0BD006E0802212029342D7
:406C400006D00E4A934203D0BB6A0D4A1A8011E0C046F9F747FE03007B613B1D1C88BB1D1A88B968F868BB6A01937B690093230000F010FDBD4607B090BDC0461080000039
:406C8000255E000080B586B000AFF8607A600B23FB180A1C1A7000237B610B23FB181B78002B04D07B68134A1A8000231DE004F04BFF03007B61FAF7D3FEFB68002B02D108
:406CC0000D4B1B68FB600B23FB181A78FB681E329200D3583B61FAF7E3FE7B69180004F037FF7B6800221A803B691800BD4606B080BDC04679690000D019002080B584B0DC
:406D000000AF78600023FB6004F01EFF0300FB60FAF7A6FE144B1B78002B0AD07B68134A1A80FAF7BDFEFB68180004F011FF012316E00B23FB180C4A12781A700A4B1B78A1
:406D40000133DAB2084B1A70FAF7AAFEFB68180004F0FEFE7B6800221A800B23FB181B781800BD4604B080BD70170020DA59000080B586B000AFF8607A603B600B23FB18F1
:406D80000A1C1A7000237B610B23FB181B78002B03D03B68114A1A801CE004F0D5FE03007B61FAF75DFEFB68002B02D10C4B1B68FB600B23FB181A78FB681E32920079683D
:406DC000D150FAF76DFE7B69180004F0C1FE3B6800221A80BD4606B080BDC04679690000D019002080B584B000AF786039600023FB60174B1B78002B03D03B68154A1A808B
:406E000023E004F0A1FE0300FB60FAF729FE7B68002B04D0104B1B687A689A4209D1FAF73FFEFB68180004F093FE3B680B4A1A800BE0FAF735FEFB68180004F089FE3A6887
:406E40007B681100180000F0A9FCBD4604B080BDF019002055710000D01900205771000090B587B000AFF8607A603B600A23FB180A1C1A8000237B617B4B1B78002B04D06E
:406E80003B687A4A1A800023EAE00A23FB181B88002B08D080221202934204D03B68744A1A800023DCE0C04604F04EFE03007B61FAF7D6FD6F4B1B68DB6C002B38D06D4B6D
:406EC0001B68DA6C013ADA646A4B1B68DB6C3B617B68002B04D0674B1B689A6C7B681A60644B1C68F9F7FEFC0200624B1B689B6CD31AA022A3505F4B1B68A4229A585D4B36
:406F00001B68A0215B589A4207D25A4B1A68594B1B68A0215B58A4215350FAF7C1FD7B69180004F015FE3B6800221A803B6997E00A23FB1800229B5E002B10DAFAF7B0FD41
:406F40007B69180004F004FE7B68002B02D07B6800221A603B68484A1A80002380E0474B1B78002B10D07B68002B02D07B6800221A60FAF795FD7B69180004F0E9FD3B68E3
:406F80003F4A1A8000236BE0FB68072200210020FBF730FDFAF784FD7B69180004F0D8FDFBF754FB04F0D0FD03007B61FAF758FD304B1B6835229B5C012B2CD0032B36D04E
:406FC000002B3ED17B68002B21D02A4B1B689A6C7B681A60274B1C68F9F784FC0200254B1B689B6CD31AA022A350224B1B68A4229A58204B1B68A0215B589A4207D21D4BD2
:407000001A681C4B1B68A0215B58A42153503B6800221A8019E07B68002B04D0154B1B689A6C7B681A603B68164A1A800DE07B68002B02D07B6800221A603B68124A1A8006
:4070400003E03B68114A1A80C0460A4B1B68DB6C3B61FAF725FD7B69180004F079FD3B691800BD4607B090BDF0190020AE610000255E0000D0190020B06100006417002028
:40708000636D0000A9610000D97200002E6E000080B586B000AFF8607A600A23FB180A1C1A8000237B61364B1B78002B04D07B68344A1A8000235FE00A23FB181B88002B46
:4070C00008D080221202934204D07B682E4A1A80002351E0C04604F037FD03007B61FAF7BFFCFB68002B04D0284B1B68FA689A420AD1FAF7D5FC7B69180004F029FD7B682B
:40710000234A1A80002337E0FB6834229B5C072B0AD0FAF7C5FC7B69180004F019FD7B681C4A1A80002327E0FAF7BAFC7B69180004F00EFD04F008FD03007B61FAF790FC96
:40714000F9F7D0FB03003B613A69FB6819000020FBF792FCFAF7A4FC7B69180004F0F8FC0A23FB1800229B5E002B01DBFBF76EFA7B6800221A8001231800BD4606B080BDF4
:40718000F0190020AA610000255E0000D0190020AC610000AB61000090B587B000AFF8607A600A23FB180A1C1A800A23FB181B88002B08D080221202934204D07B680C4A1B
:4071C0001A80002310E0C046F9F78CFB03007B617C687A690A23FB181988F868230000F08FFB03003B613B691800BD4607B090BD255E000080B586B000AFF860B9607A6097
:4072000000237B611F4B1B78002B04D07B681E4A1A80002332E004F097FC03007B61FAF71FFCFB68002B02D1184B1B68FB60FB6836229B5C1A00022313400FD0FB68342249
